{
  "_format": "hh-sol-artifact-1",
  "contractName": "TransparentFund",
  "sourceName": "contracts/TransparentFund.sol",
  "abi": [
    {
      "inputs": [],
      "stateMutability": "nonpayable",
      "type": "constructor"
    },
    {
      "anonymous": false,
      "inputs": [
        {
          "indexed": false,
          "internalType": "string",
          "name": "campaignId",
          "type": "string"
        },
        {
          "indexed": true,
          "internalType": "address",
          "name": "donor",
          "type": "address"
        },
        {
          "indexed": false,
          "internalType": "uint256",
          "name": "amount",
          "type": "uint256"
        }
      ],
      "name": "DonationLocked",
      "type": "event"
    },
    {
      "anonymous": false,
      "inputs": [
        {
          "indexed": false,
          "internalType": "string",
          "name": "campaignId",
          "type": "string"
        },
        {
          "indexed": true,
          "internalType": "address",
          "name": "ngoWallet",
          "type": "address"
        },
        {
          "indexed": false,
          "internalType": "uint256",
          "name": "amount",
          "type": "uint256"
        }
      ],
      "name": "MilestoneReleased",
      "type": "event"
    },
    {
      "inputs": [
        {
          "internalType": "string",
          "name": "",
          "type": "string"
        }
      ],
      "name": "campaigns",
      "outputs": [
        {
          "internalType": "string",
          "name": "campaignId",
          "type": "string"
        },
        {
          "internalType": "uint256",
          "name": "totalLocked",
          "type": "uint256"
        },
        {
          "internalType": "uint256",
          "name": "totalReleased",
          "type": "uint256"
        }
      ],
      "stateMutability": "view",
      "type": "function"
    },
    {
      "inputs": [
        {
          "internalType": "string",
          "name": "_campaignId",
          "type": "string"
        }
      ],
      "name": "donate",
      "outputs": [],
      "stateMutability": "payable",
      "type": "function"
    },
    {
      "inputs": [
        {
          "internalType": "string",
          "name": "_campaignId",
          "type": "string"
        }
      ],
      "name": "getCampaign",
      "outputs": [
        {
          "internalType": "string",
          "name": "",
          "type": "string"
        },
        {
          "internalType": "uint256",
          "name": "",
          "type": "uint256"
        },
        {
          "internalType": "uint256",
          "name": "",
          "type": "uint256"
        }
      ],
      "stateMutability": "view",
      "type": "function"
    },
    {
      "inputs": [],
      "name": "owner",
      "outputs": [
        {
          "internalType": "address",
          "name": "",
          "type": "address"
        }
      ],
      "stateMutability": "view",
      "type": "function"
    },
    {
      "inputs": [
        {
          "internalType": "string",
          "name": "_campaignId",
          "type": "string"
        },
        {
          "internalType": "address payable",
          "name": "_ngoWallet",
          "type": "address"
        },
        {
          "internalType": "uint256",
          "name": "_amount",
          "type": "uint256"
        }
      ],
      "name": "releaseMilestone",
      "outputs": [],
      "stateMutability": "nonpayable",
      "type": "function"
    }
  ],
  "bytecode": "0x6080604052348015600f57600080fd5b5033600160006101000a81548173ffffffffffffffffffffffffffffffffffffffff021916908373ffffffffffffffffffffffffffffffffffffffff160217905550610fed806100606000396000f3fe60806040526004361061004a5760003560e01c80631d39e5091461004f57806352bf36ec1461008e5780635d7bc91c146100cd5780638da5cb5b146100f6578063b5aebc8014610121575b600080fd5b34801561005b57600080fd5b5061007660048036038101906100719190610795565b61013d565b60405161008593929190610876565b60405180910390f35b34801561009a57600080fd5b506100b560048036038101906100b09190610795565b610205565b6040516100c493929190610876565b60405180910390f35b3480156100d957600080fd5b506100f460048036038101906100ef919061093e565b6102f9565b005b34801561010257600080fd5b5061010b610517565b60405161011891906109ce565b60405180910390f35b61013b60048036038101906101369190610795565b61053d565b005b60008180516020810182018051848252602083016020850120818352809550505050505060009150905080600001805461017690610a18565b80601f01602080910402602001604051908101604052809291908181526020018280546101a290610a18565b80156101ef5780601f106101c4576101008083540402835291602001916101ef565b820191906000526020600020905b8154815290600101906020018083116101d257829003601f168201915b5050505050908060010154908060020154905083565b60606000806000808560405161021b9190610a85565b908152602001604051809103902060405180606001604052908160008201805461024490610a18565b80601f016020809104026020016040519081016040528092919081815260200182805461027090610a18565b80156102bd5780601f10610292576101008083540402835291602001916102bd565b820191906000526020600020905b8154815290600101906020018083116102a057829003601f168201915b50505050508152602001600182015481526020016002820154815250509050806000015181602001518260400151935093509350509193909250565b600160009054906101000a900473ffffffffffffffffffffffffffffffffffffffff1673ffffffffffffffffffffffffffffffffffffffff163373ffffffffffffffffffffffffffffffffffffffff1614610389576040517f08c379a000000000000000000000000000000000000000000000000000000000815260040161038090610ae8565b60405180910390fd5b6000808460405161039a9190610a85565b9081526020016040518091039020905060008160000180546103bb90610a18565b9050116103fd576040517f08c379a00000000000000000000000000000000000000000000000000000000081526004016103f490610b54565b60405180910390fd5b8181600101541015610444576040517f08c379a000000000000000000000000000000000000000000000000000000000815260040161043b90610bc0565b60405180910390fd5b818160010160008282546104589190610c0f565b92505081905550818160020160008282546104739190610c43565b925050819055508273ffffffffffffffffffffffffffffffffffffffff166108fc839081150290604051600060405180830381858888f193505050501580156104c0573d6000803e3d6000fd5b508273ffffffffffffffffffffffffffffffffffffffff167fe560e6f70812bdaadd4be592f07a84f4e13dbdc945cf784d580f8ce6d74b72038584604051610509929190610c77565b60405180910390a250505050565b600160009054906101000a900473ffffffffffffffffffffffffffffffffffffffff1681565b60003411610580576040517f08c379a000000000000000000000000000000000000000000000000000000000815260040161057790610d19565b60405180910390fd5b600080826040516105919190610a85565b9081526020016040518091039020905060008160000180546105b290610a18565b9050036105cc57818160000190816105ca9190610ee5565b505b348160010160008282546105e09190610c43565b925050819055503373ffffffffffffffffffffffffffffffffffffffff167f1c0b6db051b68c7c02e9860a1b3c038b147d3d0c0b3602fe47dffd3784d3934f833460405161062f929190610c77565b60405180910390a25050565b6000604051905090565b600080fd5b600080fd5b600080fd5b600080fd5b6000601f19601f8301169050919050565b7f4e487b7100000000000000000000000000000000000000000000000000000000600052604160045260246000fd5b6106a282610659565b810181811067ffffffffffffffff821117156106c1576106c061066a565b5b80604052505050565b60006106d461063b565b90506106e08282610699565b919050565b600067ffffffffffffffff821115610700576106ff61066a565b5b61070982610659565b9050602081019050919050565b82818337600083830152505050565b6000610738610733846106e5565b6106ca565b90508281526020810184848401111561075457610753610654565b5b61075f848285610716565b509392505050565b600082601f83011261077c5761077b61064f565b5b813561078c848260208601610725565b91505092915050565b6000602082840312156107ab576107aa610645565b5b600082013567ffffffffffffffff8111156107c9576107c861064a565b5b6107d584828501610767565b91505092915050565b600081519050919050565b600082825260208201905092915050565b60005b838110156108185780820151818401526020810190506107fd565b60008484015250505050565b600061082f826107de565b61083981856107e9565b93506108498185602086016107fa565b61085281610659565b840191505092915050565b6000819050919050565b6108708161085d565b82525050565b600060608201905081810360008301526108908186610824565b905061089f6020830185610867565b6108ac6040830184610867565b949350505050565b600073ffffffffffffffffffffffffffffffffffffffff82169050919050565b60006108df826108b4565b9050919050565b6108ef816108d4565b81146108fa57600080fd5b50565b60008135905061090c816108e6565b92915050565b61091b8161085d565b811461092657600080fd5b50565b60008135905061093881610912565b92915050565b60008060006060848603121561095757610956610645565b5b600084013567ffffffffffffffff8111156109755761097461064a565b5b61098186828701610767565b9350506020610992868287016108fd565b92505060406109a386828701610929565b9150509250925092565b60006109b8826108b4565b9050919050565b6109c8816109ad565b82525050565b60006020820190506109e360008301846109bf565b92915050565b7f4e487b7100000000000000000000000000000000000000000000000000000000600052602260045260246000fd5b60006002820490506001821680610a3057607f821691505b602082108103610a4357610a426109e9565b5b50919050565b600081905092915050565b6000610a5f826107de565b610a698185610a49565b9350610a798185602086016107fa565b80840191505092915050565b6000610a918284610a54565b915081905092915050565b7f4f6e6c79206f776e65722063616e2063616c6c20746869730000000000000000600082015250565b6000610ad26018836107e9565b9150610add82610a9c565b602082019050919050565b60006020820190508181036000830152610b0181610ac5565b9050919050565b7f43616d706169676e20646f6573206e6f74206578697374000000000000000000600082015250565b6000610b3e6017836107e9565b9150610b4982610b08565b602082019050919050565b60006020820190508181036000830152610b6d81610b31565b9050919050565b7f496e73756666696369656e74206c6f636b65642066756e647300000000000000600082015250565b6000610baa6019836107e9565b9150610bb582610b74565b602082019050919050565b60006020820190508181036000830152610bd981610b9d565b9050919050565b7f4e487b7100000000000000000000000000000000000000000000000000000000600052601160045260246000fd5b6000610c1a8261085d565b9150610c258361085d565b9250828203905081811115610c3d57610c3c610be0565b5b92915050565b6000610c4e8261085d565b9150610c598361085d565b9250828201905080821115610c7157610c70610be0565b5b92915050565b60006040820190508181036000830152610c918185610824565b9050610ca06020830184610867565b9392505050565b7f446f6e6174696f6e206d7573742062652067726561746572207468616e207a6560008201527f726f000000000000000000000000000000000000000000000000000000000000602082015250565b6000610d036022836107e9565b9150610d0e82610ca7565b604082019050919050565b60006020820190508181036000830152610d3281610cf6565b9050919050565b60008190508160005260206000209050919050565b60006020601f8301049050919050565b600082821b905092915050565b600060088302610d9b7fffffffffffffffffffffffffffffffffffffffffffffffffffffffffffffffff82610d5e565b610da58683610d5e565b95508019841693508086168417925050509392505050565b6000819050919050565b6000610de2610ddd610dd88461085d565b610dbd565b61085d565b9050919050565b6000819050919050565b610dfc83610dc7565b610e10610e0882610de9565b848454610d6b565b825550505050565b600090565b610e25610e18565b610e30818484610df3565b505050565b5b81811015610e5457610e49600082610e1d565b600181019050610e36565b5050565b601f821115610e9957610e6a81610d39565b610e7384610d4e565b81016020851015610e82578190505b610e96610e8e85610d4e565b830182610e35565b50505b505050565b600082821c905092915050565b6000610ebc60001984600802610e9e565b1980831691505092915050565b6000610ed58383610eab565b9150826002028217905092915050565b610eee826107de565b67ffffffffffffffff811115610f0757610f0661066a565b5b610f118254610a18565b610f1c828285610e58565b600060209050601f831160018114610f4f5760008415610f3d578287015190505b610f478582610ec9565b865550610faf565b601f198416610f5d86610d39565b60005b82811015610f8557848901518255600182019150602085019450602081019050610f60565b86831015610fa25784890151610f9e601f891682610eab565b8355505b6001600288020188555050505b50505050505056fea2646970667358221220d05282b94c8fa93be2aabcd9e617b6a774f5eadc089b0471e890c4bb66e53e5764736f6c634300081c0033",
  "linkReferences": {},
  "deployedLinkReferences": {}
}