{
  "_format": "hh-sol-artifact-1",
  "contractName": "TransparentFund",
  "sourceName": "contracts/TransparentFund.sol",
  "abi": [
    {
      "inputs": [],
      "stateMutability": "nonpayable",
      "type": "constructor"
    },
    {
      "anonymous": false,
      "inputs": [
        {
          "indexed": true,
          "internalType": "string",
          "name": "campaignId",
          "type": "string"
        },
        {
          "indexed": true,
          "internalType": "address",
          "name": "donor",
          "type": "address"
        },
        {
          "indexed": false,
          "internalType": "uint256",
          "name": "amount",
          "type": "uint256"
        }
      ],
      "name": "DonationLocked",
      "type": "event"
    },
    {
      "anonymous": false,
      "inputs": [
        {
          "indexed": true,
          "internalType": "string",
          "name": "campaignId",
          "type": "string"
        },
        {
          "indexed": true,
          "internalType": "address",
          "name": "ngoWallet",
          "type": "address"
        },
        {
          "indexed": false,
          "internalType": "uint256",
          "name": "amount",
          "type": "uint256"
        }
      ],
      "name": "MilestoneReleased",
      "type": "event"
    },
    {
      "inputs": [
        {
          "internalType": "string",
          "name": "",
          "type": "string"
        }
      ],
      "name": "campaigns",
      "outputs": [
        {
          "internalType": "string",
          "name": "campaignId",
          "type": "string"
        },
        {
          "internalType": "uint256",
          "name": "totalLocked",
          "type": "uint256"
        },
        {
          "internalType": "uint256",
          "name": "totalReleased",
          "type": "uint256"
        }
      ],
      "stateMutability": "view",
      "type": "function"
    },
    {
      "inputs": [],
      "name": "contractBalance",
      "outputs": [
        {
          "internalType": "uint256",
          "name": "",
          "type": "uint256"
        }
      ],
      "stateMutability": "view",
      "type": "function"
    },
    {
      "inputs": [
        {
          "internalType": "string",
          "name": "_campaignId",
          "type": "string"
        }
      ],
      "name": "donate",
      "outputs": [],
      "stateMutability": "payable",
      "type": "function"
    },
    {
      "inputs": [
        {
          "internalType": "string",
          "name": "_campaignId",
          "type": "string"
        }
      ],
      "name": "getCampaign",
      "outputs": [
        {
          "internalType": "string",
          "name": "",
          "type": "string"
        },
        {
          "internalType": "uint256",
          "name": "",
          "type": "uint256"
        },
        {
          "internalType": "uint256",
          "name": "",
          "type": "uint256"
        }
      ],
      "stateMutability": "view",
      "type": "function"
    },
    {
      "inputs": [],
      "name": "owner",
      "outputs": [
        {
          "internalType": "address",
          "name": "",
          "type": "address"
        }
      ],
      "stateMutability": "view",
      "type": "function"
    },
    {
      "inputs": [
        {
          "internalType": "string",
          "name": "_campaignId",
          "type": "string"
        },
        {
          "internalType": "address payable",
          "name": "_ngoWallet",
          "type": "address"
        },
        {
          "internalType": "uint256",
          "name": "_amount",
          "type": "uint256"
        }
      ],
      "name": "releaseMilestone",
      "outputs": [],
      "stateMutability": "nonpayable",
      "type": "function"
    },
    {
      "stateMutability": "payable",
      "type": "receive"
    }
  ],
  "bytecode": "0x6080604052348015600f57600080fd5b50600180546001600160a01b0319163317905561098a806100316000396000f3fe6080604052600436106100595760003560e01c80631d39e5091461006557806352bf36ec1461009d5780635d7bc91c146100bd5780638b7afe2e146100df5780638da5cb5b146100fa578063b5aebc801461013257600080fd5b3661006057005b600080fd5b34801561007157600080fd5b506100856100803660046106a5565b610145565b60405161009493929190610706565b60405180910390f35b3480156100a957600080fd5b506100856100b83660046106a5565b6101fa565b3480156100c957600080fd5b506100dd6100d8366004610748565b6102ea565b005b3480156100eb57600080fd5b50604051478152602001610094565b34801561010657600080fd5b5060015461011a906001600160a01b031681565b6040516001600160a01b039091168152602001610094565b6100dd6101403660046106a5565b61054c565b805160208183018101805160008252928201919093012091528054819061016b906107ae565b80601f0160208091040260200160405190810160405280929190818152602001828054610197906107ae565b80156101e45780601f106101b9576101008083540402835291602001916101e4565b820191906000526020600020905b8154815290600101906020018083116101c757829003601f168201915b5050505050908060010154908060020154905083565b60606000806000808560405161021091906107e8565b9081526020016040518091039020604051806060016040529081600082018054610239906107ae565b80601f0160208091040260200160405190810160405280929190818152602001828054610265906107ae565b80156102b25780601f10610287576101008083540402835291602001916102b2565b820191906000526020600020905b81548152906001019060200180831161029557829003601f168201915b505050918352505060018201546020808301919091526002909201546040918201528251918301519201519097919650945092505050565b600080846040516102fb91906107e8565b90815260200160405180910390209050600081600001805461031c906107ae565b9050116103705760405162461bcd60e51b815260206004820152601760248201527f43616d706169676e20646f6573206e6f7420657869737400000000000000000060448201526064015b60405180910390fd5b81816001015410156103c45760405162461bcd60e51b815260206004820152601960248201527f496e73756666696369656e74206c6f636b65642066756e6473000000000000006044820152606401610367565b814710156104145760405162461bcd60e51b815260206004820152601860248201527f436f6e74726163742062616c616e636520746f6f206c6f7700000000000000006044820152606401610367565b81816001016000828254610428919061081a565b92505081905550818160020160008282546104439190610833565b90915550506040516000906001600160a01b0385169084908381818185875af1925050503d8060008114610493576040519150601f19603f3d011682016040523d82523d6000602084013e610498565b606091505b50509050806104f35760405162461bcd60e51b815260206004820152602160248201527f455448207472616e7366657220746f204e474f2077616c6c6574206661696c656044820152601960fa1b6064820152608401610367565b836001600160a01b03168560405161050b91906107e8565b604051908190038120858252907fe560e6f70812bdaadd4be592f07a84f4e13dbdc945cf784d580f8ce6d74b72039060200160405180910390a35050505050565b6000808260405161055d91906107e8565b9081526020016040518091039020905080600001805461057c906107ae565b905060000361059257806105908382610895565b505b34156105fc57348160010160008282546105ac9190610833565b909155505060405133906105c19084906107e8565b604051908190038120348252907f1c0b6db051b68c7c02e9860a1b3c038b147d3d0c0b3602fe47dffd3784d3934f9060200160405180910390a35b5050565b634e487b7160e01b600052604160045260246000fd5b600082601f83011261062757600080fd5b813567ffffffffffffffff81111561064157610641610600565b604051601f8201601f19908116603f0116810167ffffffffffffffff8111828210171561067057610670610600565b60405281815283820160200185101561068857600080fd5b816020850160208301376000918101602001919091529392505050565b6000602082840312156106b757600080fd5b813567ffffffffffffffff8111156106ce57600080fd5b6106da84828501610616565b949350505050565b60005b838110156106fd5781810151838201526020016106e5565b50506000910152565b60608152600084518060608401526107258160808501602089016106e2565b60208301949094525060408101919091526080601f909201601f19160101919050565b60008060006060848603121561075d57600080fd5b833567ffffffffffffffff81111561077457600080fd5b61078086828701610616565b93505060208401356001600160a01b038116811461079d57600080fd5b929592945050506040919091013590565b600181811c908216806107c257607f821691505b6020821081036107e257634e487b7160e01b600052602260045260246000fd5b50919050565b600082516107fa8184602087016106e2565b9190910192915050565b634e487b7160e01b600052601160045260246000fd5b8181038181111561082d5761082d610804565b92915050565b8082018082111561082d5761082d610804565b601f82111561089057806000526020600020601f840160051c8101602085101561086d5750805b601f840160051c820191505b8181101561088d5760008155600101610879565b50505b505050565b815167ffffffffffffffff8111156108af576108af610600565b6108c3816108bd84546107ae565b84610846565b6020601f8211600181146108f757600083156108df5750848201515b600019600385901b1c1916600184901b17845561088d565b600084815260208120601f198516915b828110156109275787850151825560209485019460019092019101610907565b50848210156109455786840151600019600387901b60f8161c191681555b50505050600190811b0190555056fea26469706673582212206611cd7adba3a5840ee88e113f5e143546b5edfee821bf638dc0196067d0e09364736f6c634300081c0033",
  "linkReferences": {},
  "deployedLinkReferences": {}
}