{
  "_format": "hh-sol-artifact-1",
  "contractName": "TransparentFund",
  "sourceName": "contracts/TransparentFund.sol",
  "abi": [
    {
      "inputs": [],
      "stateMutability": "nonpayable",
      "type": "constructor"
    },
    {
      "anonymous": false,
      "inputs": [
        {
          "indexed": true,
          "internalType": "string",
          "name": "campaignId",
          "type": "string"
        },
        {
          "indexed": true,
          "internalType": "address",
          "name": "donor",
          "type": "address"
        },
        {
          "indexed": false,
          "internalType": "uint256",
          "name": "amount",
          "type": "uint256"
        }
      ],
      "name": "DonationLocked",
      "type": "event"
    },
    {
      "anonymous": false,
      "inputs": [
        {
          "indexed": true,
          "internalType": "string",
          "name": "campaignId",
          "type": "string"
        },
        {
          "indexed": true,
          "internalType": "address",
          "name": "ngoWallet",
          "type": "address"
        },
        {
          "indexed": false,
          "internalType": "uint256",
          "name": "amount",
          "type": "uint256"
        }
      ],
      "name": "MilestoneReleased",
      "type": "event"
    },
    {
      "inputs": [
        {
          "internalType": "string",
          "name": "",
          "type": "string"
        }
      ],
      "name": "campaigns",
      "outputs": [
        {
          "internalType": "string",
          "name": "campaignId",
          "type": "string"
        },
        {
          "internalType": "uint256",
          "name": "totalLocked",
          "type": "uint256"
        },
        {
          "internalType": "uint256",
          "name": "totalReleased",
          "type": "uint256"
        }
      ],
      "stateMutability": "view",
      "type": "function"
    },
    {
      "inputs": [],
      "name": "contractBalance",
      "outputs": [
        {
          "internalType": "uint256",
          "name": "",
          "type": "uint256"
        }
      ],
      "stateMutability": "view",
      "type": "function"
    },
    {
      "inputs": [
        {
          "internalType": "string",
          "name": "_campaignId",
          "type": "string"
        }
      ],
      "name": "donate",
      "outputs": [],
      "stateMutability": "payable",
      "type": "function"
    },
    {
      "inputs": [
        {
          "internalType": "string",
          "name": "_campaignId",
          "type": "string"
        }
      ],
      "name": "getCampaign",
      "outputs": [
        {
          "internalType": "string",
          "name": "",
          "type": "string"
        },
        {
          "internalType": "uint256",
          "name": "",
          "type": "uint256"
        },
        {
          "internalType": "uint256",
          "name": "",
          "type": "uint256"
        }
      ],
      "stateMutability": "view",
      "type": "function"
    },
    {
      "inputs": [],
      "name": "owner",
      "outputs": [
        {
          "internalType": "address",
          "name": "",
          "type": "address"
        }
      ],
      "stateMutability": "view",
      "type": "function"
    },
    {
      "inputs": [
        {
          "internalType": "string",
          "name": "_campaignId",
          "type": "string"
        },
        {
          "internalType": "address payable",
          "name": "_ngoWallet",
          "type": "address"
        },
        {
          "internalType": "uint256",
          "name": "_amount",
          "type": "uint256"
        }
      ],
      "name": "releaseMilestone",
      "outputs": [],
      "stateMutability": "nonpayable",
      "type": "function"
    },
    {
      "stateMutability": "payable",
      "type": "receive"
    }
  ],
  "bytecode": "0x6080604052348015600f57600080fd5b50600180546001600160a01b03191633179055610a38806100316000396000f3fe6080604052600436106100595760003560e01c80631d39e5091461006557806352bf36ec1461009d5780635d7bc91c146100bd5780638b7afe2e146100df5780638da5cb5b146100fa578063b5aebc801461013257600080fd5b3661006057005b600080fd5b34801561007157600080fd5b50610085610080366004610753565b610145565b604051610094939291906107b4565b60405180910390f35b3480156100a957600080fd5b506100856100b8366004610753565b6101fa565b3480156100c957600080fd5b506100dd6100d83660046107f6565b6102ea565b005b3480156100eb57600080fd5b50604051478152602001610094565b34801561010657600080fd5b5060015461011a906001600160a01b031681565b6040516001600160a01b039091168152602001610094565b6100dd610140366004610753565b6105a6565b805160208183018101805160008252928201919093012091528054819061016b9061085c565b80601f01602080910402602001604051908101604052809291908181526020018280546101979061085c565b80156101e45780601f106101b9576101008083540402835291602001916101e4565b820191906000526020600020905b8154815290600101906020018083116101c757829003601f168201915b5050505050908060010154908060020154905083565b6060600080600080856040516102109190610896565b90815260200160405180910390206040518060600160405290816000820180546102399061085c565b80601f01602080910402602001604051908101604052809291908181526020018280546102659061085c565b80156102b25780601f10610287576101008083540402835291602001916102b2565b820191906000526020600020905b81548152906001019060200180831161029557829003601f168201915b505050918352505060018201546020808301919091526002909201546040918201528251918301519201519097919650945092505050565b6001546001600160a01b031633146103495760405162461bcd60e51b815260206004820152601860248201527f4f6e6c79206f776e65722063616e2063616c6c2074686973000000000000000060448201526064015b60405180910390fd5b6000808460405161035a9190610896565b90815260200160405180910390209050600081600001805461037b9061085c565b9050116103ca5760405162461bcd60e51b815260206004820152601760248201527f43616d706169676e20646f6573206e6f742065786973740000000000000000006044820152606401610340565b818160010154101561041e5760405162461bcd60e51b815260206004820152601960248201527f496e73756666696369656e74206c6f636b65642066756e6473000000000000006044820152606401610340565b8147101561046e5760405162461bcd60e51b815260206004820152601860248201527f436f6e74726163742062616c616e636520746f6f206c6f7700000000000000006044820152606401610340565b8181600101600082825461048291906108c8565b925050819055508181600201600082825461049d91906108e1565b90915550506040516000906001600160a01b0385169084908381818185875af1925050503d80600081146104ed576040519150601f19603f3d011682016040523d82523d6000602084013e6104f2565b606091505b505090508061054d5760405162461bcd60e51b815260206004820152602160248201527f455448207472616e7366657220746f204e474f2077616c6c6574206661696c656044820152601960fa1b6064820152608401610340565b836001600160a01b0316856040516105659190610896565b604051908190038120858252907fe560e6f70812bdaadd4be592f07a84f4e13dbdc945cf784d580f8ce6d74b72039060200160405180910390a35050505050565b600034116106015760405162461bcd60e51b815260206004820152602260248201527f446f6e6174696f6e206d7573742062652067726561746572207468616e207a65604482015261726f60f01b6064820152608401610340565b600080826040516106129190610896565b908152602001604051809103902090508060000180546106319061085c565b905060000361064757806106458382610943565b505b3481600101600082825461065b91906108e1565b90915550506040513390610670908490610896565b604051908190038120348252907f1c0b6db051b68c7c02e9860a1b3c038b147d3d0c0b3602fe47dffd3784d3934f9060200160405180910390a35050565b634e487b7160e01b600052604160045260246000fd5b600082601f8301126106d557600080fd5b813567ffffffffffffffff8111156106ef576106ef6106ae565b604051601f8201601f19908116603f0116810167ffffffffffffffff8111828210171561071e5761071e6106ae565b60405281815283820160200185101561073657600080fd5b816020850160208301376000918101602001919091529392505050565b60006020828403121561076557600080fd5b813567ffffffffffffffff81111561077c57600080fd5b610788848285016106c4565b949350505050565b60005b838110156107ab578181015183820152602001610793565b50506000910152565b60608152600084518060608401526107d3816080850160208901610790565b60208301949094525060408101919091526080601f909201601f19160101919050565b60008060006060848603121561080b57600080fd5b833567ffffffffffffffff81111561082257600080fd5b61082e868287016106c4565b93505060208401356001600160a01b038116811461084b57600080fd5b929592945050506040919091013590565b600181811c9082168061087057607f821691505b60208210810361089057634e487b7160e01b600052602260045260246000fd5b50919050565b600082516108a8818460208701610790565b9190910192915050565b634e487b7160e01b600052601160045260246000fd5b818103818111156108db576108db6108b2565b92915050565b808201808211156108db576108db6108b2565b601f82111561093e57806000526020600020601f840160051c8101602085101561091b5750805b601f840160051c820191505b8181101561093b5760008155600101610927565b50505b505050565b815167ffffffffffffffff81111561095d5761095d6106ae565b6109718161096b845461085c565b846108f4565b6020601f8211600181146109a5576000831561098d5750848201515b600019600385901b1c1916600184901b17845561093b565b600084815260208120601f198516915b828110156109d557878501518255602094850194600190920191016109b5565b50848210156109f35786840151600019600387901b60f8161c191681555b50505050600190811b0190555056fea2646970667358221220f5103d9f6d5b42427e6201d9438ed986cb247572605e41f0361298520596ffa764736f6c634300081c0033",
  "linkReferences": {},
  "deployedLinkReferences": {}
}